{
  "_format": "hh-sol-artifact-1",
  "contractName": "Params",
  "sourceName": "contracts/UpgradeProxy/Params.sol",
  "abi": [
    {
      "anonymous": false,
      "inputs": [
        {
          "indexed": true,
          "internalType": "bytes32",
          "name": "_key",
          "type": "bytes32"
        },
        {
          "indexed": false,
          "internalType": "uint256",
          "name": "_value",
          "type": "uint256"
        }
      ],
      "name": "Uint256Param",
      "type": "event"
    },
    {
      "inputs": [
        {
          "internalType": "bytes32",
          "name": "_key",
          "type": "bytes32"
        }
      ],
      "name": "GetUint256Param",
      "outputs": [
        {
          "internalType": "uint256",
          "name": "",
          "type": "uint256"
        }
      ],
      "stateMutability": "view",
      "type": "function"
    },
    {
      "inputs": [
        {
          "internalType": "bytes32",
          "name": "_key",
          "type": "bytes32"
        },
        {
          "internalType": "uint256",
          "name": "_value",
          "type": "uint256"
        }
      ],
      "name": "SetUint256Param",
      "outputs": [],
      "stateMutability": "nonpayable",
      "type": "function"
    }
  ],
  "bytecode": "0x608060405234801561001057600080fd5b50610227806100206000396000f3fe608060405234801561001057600080fd5b50600436106100365760003560e01c8063a14f64871461003b578063f52cfd911461006b575b600080fd5b61005560048036038101906100509190610120565b610087565b6040516100629190610194565b60405180910390f35b61008560048036038101906100809190610149565b6100a3565b005b6000806000838152602001908152602001600020549050919050565b8060008084815260200190815260200160002081905550817f62314cc3ba42409ac285cab48a24d8c748df65c24f073ff86d8c6f3d7dc63e73826040516100ea9190610194565b60405180910390a25050565b600081359050610105816101c3565b92915050565b60008135905061011a816101da565b92915050565b60006020828403121561013257600080fd5b6000610140848285016100f6565b91505092915050565b6000806040838503121561015c57600080fd5b600061016a858286016100f6565b925050602061017b8582860161010b565b9150509250929050565b61018e816101b9565b82525050565b60006020820190506101a96000830184610185565b92915050565b6000819050919050565b6000819050919050565b6101cc816101af565b81146101d757600080fd5b50565b6101e3816101b9565b81146101ee57600080fd5b5056fea26469706673582212209bce8bd4844a4c66ba067775625538b35f2a01651cf2fb20943de3e425bfd7d764736f6c63430008020033",
  "linkReferences": {},
  "deployedLinkReferences": {}
}