{
  "_format": "hh-sol-artifact-1",
  "contractName": "MetaCoin",
  "sourceName": "contracts/CloneFactory/MetaCoin.sol",
  "abi": [
    {
      "inputs": [
        {
          "internalType": "address",
          "name": "addr",
          "type": "address"
        }
      ],
      "name": "BalancesOf",
      "outputs": [
        {
          "internalType": "uint256",
          "name": "",
          "type": "uint256"
        }
      ],
      "stateMutability": "view",
      "type": "function"
    },
    {
      "inputs": [
        {
          "internalType": "address",
          "name": "metaCoinOwner",
          "type": "address"
        },
        {
          "internalType": "uint256",
          "name": "initialBalance",
          "type": "uint256"
        }
      ],
      "name": "initialize",
      "outputs": [],
      "stateMutability": "nonpayable",
      "type": "function"
    },
    {
      "inputs": [
        {
          "internalType": "address",
          "name": "receiver",
          "type": "address"
        },
        {
          "internalType": "uint256",
          "name": "amount",
          "type": "uint256"
        }
      ],
      "name": "sendCoin",
      "outputs": [
        {
          "internalType": "bool",
          "name": "sufficient",
          "type": "bool"
        }
      ],
      "stateMutability": "nonpayable",
      "type": "function"
    }
  ],
  "bytecode": "0x608060405234801561001057600080fd5b5061024a806100206000396000f3fe608060405234801561001057600080fd5b50600436106100415760003560e01c80631f8369e11461004657806390b98a111461006f578063cd6dc6871461008f575b600080fd5b610059610054366004610171565b6100a4565b60405161006691906101c6565b60405180910390f35b61008261007d366004610192565b6100c3565b60405161006691906101bb565b6100a261009d366004610192565b61013e565b005b6001600160a01b0381166000908152602081905260409020545b919050565b336000908152602081905260408120548211156100e257506000610138565b33600090815260208190526040812080548492906101019084906101e7565b90915550506001600160a01b0383166000908152602081905260408120805484929061012e9084906101cf565b9091555060019150505b92915050565b6001600160a01b03909116600090815260208190526040902055565b80356001600160a01b03811681146100be57600080fd5b600060208284031215610182578081fd5b61018b8261015a565b9392505050565b600080604083850312156101a4578081fd5b6101ad8361015a565b946020939093013593505050565b901515815260200190565b90815260200190565b600082198211156101e2576101e26101fe565b500190565b6000828210156101f9576101f96101fe565b500390565b634e487b7160e01b600052601160045260246000fdfea26469706673582212203427e652759aec8567f5e602e9b226a45cd083596f7f76a4875c237528df6e8664736f6c63430008000033",
  "linkReferences": {},
  "deployedLinkReferences": {}
}