{
  "_format": "hh-sol-artifact-1",
  "contractName": "MetaCoin",
  "sourceName": "contracts/CloneFactory/MetaCoin.sol",
  "abi": [
    {
      "inputs": [
        {
          "internalType": "address",
          "name": "addr",
          "type": "address"
        }
      ],
      "name": "BalancesOf",
      "outputs": [
        {
          "internalType": "uint256",
          "name": "",
          "type": "uint256"
        }
      ],
      "stateMutability": "view",
      "type": "function"
    },
    {
      "inputs": [
        {
          "internalType": "address",
          "name": "metaCoinOwner",
          "type": "address"
        },
        {
          "internalType": "uint256",
          "name": "initialBalance",
          "type": "uint256"
        }
      ],
      "name": "initialize",
      "outputs": [],
      "stateMutability": "nonpayable",
      "type": "function"
    },
    {
      "inputs": [
        {
          "internalType": "address",
          "name": "receiver",
          "type": "address"
        },
        {
          "internalType": "uint256",
          "name": "amount",
          "type": "uint256"
        }
      ],
      "name": "sendCoin",
      "outputs": [
        {
          "internalType": "bool",
          "name": "sufficient",
          "type": "bool"
        }
      ],
      "stateMutability": "nonpayable",
      "type": "function"
    }
  ],
  "bytecode": "0x608060405234801561001057600080fd5b5061049f806100206000396000f3fe608060405234801561001057600080fd5b50600436106100415760003560e01c80631f8369e11461004657806390b98a1114610076578063cd6dc687146100a6575b600080fd5b610060600480360381019061005b9190610281565b6100c2565b60405161006d919061031f565b60405180910390f35b610090600480360381019061008b91906102aa565b61010a565b60405161009d9190610304565b60405180910390f35b6100c060048036038101906100bb91906102aa565b610210565b005b60008060008373ffffffffffffffffffffffffffffffffffffffff1673ffffffffffffffffffffffffffffffffffffffff168152602001908152602001600020549050919050565b6000816000803373ffffffffffffffffffffffffffffffffffffffff1673ffffffffffffffffffffffffffffffffffffffff16815260200190815260200160002054101561015b576000905061020a565b816000803373ffffffffffffffffffffffffffffffffffffffff1673ffffffffffffffffffffffffffffffffffffffff16815260200190815260200160002060008282546101a99190610390565b92505081905550816000808573ffffffffffffffffffffffffffffffffffffffff1673ffffffffffffffffffffffffffffffffffffffff16815260200190815260200160002060008282546101fe919061033a565b92505081905550600190505b92915050565b806000808473ffffffffffffffffffffffffffffffffffffffff1673ffffffffffffffffffffffffffffffffffffffff168152602001908152602001600020819055505050565b6000813590506102668161043b565b92915050565b60008135905061027b81610452565b92915050565b60006020828403121561029357600080fd5b60006102a184828501610257565b91505092915050565b600080604083850312156102bd57600080fd5b60006102cb85828601610257565b92505060206102dc8582860161026c565b9150509250929050565b6102ef816103d6565b82525050565b6102fe81610402565b82525050565b600060208201905061031960008301846102e6565b92915050565b600060208201905061033460008301846102f5565b92915050565b600061034582610402565b915061035083610402565b9250827fffffffffffffffffffffffffffffffffffffffffffffffffffffffffffffffff038211156103855761038461040c565b5b828201905092915050565b600061039b82610402565b91506103a683610402565b9250828210156103b9576103b861040c565b5b828203905092915050565b60006103cf826103e2565b9050919050565b60008115159050919050565b600073ffffffffffffffffffffffffffffffffffffffff82169050919050565b6000819050919050565b7f4e487b7100000000000000000000000000000000000000000000000000000000600052601160045260246000fd5b610444816103c4565b811461044f57600080fd5b50565b61045b81610402565b811461046657600080fd5b5056fea26469706673582212202e1ad9af4b557b0fa8da252ae3cafab55637030d1b696e0bad83a6cdde701b1d64736f6c63430008000033",
  "linkReferences": {},
  "deployedLinkReferences": {}
}