{
  "_format": "hh-sol-artifact-1",
  "contractName": "MetaCoinFactory",
  "sourceName": "contracts/CloneFactory/MetaCoinFactory.sol",
  "abi": [
    {
      "inputs": [
        {
          "internalType": "address",
          "name": "_libraryAddress",
          "type": "address"
        }
      ],
      "stateMutability": "nonpayable",
      "type": "constructor"
    },
    {
      "anonymous": false,
      "inputs": [
        {
          "indexed": false,
          "internalType": "address",
          "name": "newMetaCoinAddress",
          "type": "address"
        }
      ],
      "name": "MetaCoinCreated",
      "type": "event"
    },
    {
      "anonymous": false,
      "inputs": [
        {
          "indexed": true,
          "internalType": "address",
          "name": "previousOwner",
          "type": "address"
        },
        {
          "indexed": true,
          "internalType": "address",
          "name": "newOwner",
          "type": "address"
        }
      ],
      "name": "OwnershipTransferred",
      "type": "event"
    },
    {
      "inputs": [],
      "name": "CANNOT_TRANSFER_TO_ZERO_ADDRESS",
      "outputs": [
        {
          "internalType": "string",
          "name": "",
          "type": "string"
        }
      ],
      "stateMutability": "view",
      "type": "function"
    },
    {
      "inputs": [],
      "name": "NOT_CURRENT_OWNER",
      "outputs": [
        {
          "internalType": "string",
          "name": "",
          "type": "string"
        }
      ],
      "stateMutability": "view",
      "type": "function"
    },
    {
      "inputs": [
        {
          "internalType": "address",
          "name": "_metaCoinOwner",
          "type": "address"
        },
        {
          "internalType": "uint256",
          "name": "_initialSupply",
          "type": "uint256"
        }
      ],
      "name": "createMetaCoin",
      "outputs": [],
      "stateMutability": "nonpayable",
      "type": "function"
    },
    {
      "inputs": [
        {
          "internalType": "address",
          "name": "_targetAddress",
          "type": "address"
        }
      ],
      "name": "isCloned",
      "outputs": [
        {
          "internalType": "bool",
          "name": "",
          "type": "bool"
        }
      ],
      "stateMutability": "view",
      "type": "function"
    },
    {
      "inputs": [],
      "name": "libraryAddress",
      "outputs": [
        {
          "internalType": "address",
          "name": "",
          "type": "address"
        }
      ],
      "stateMutability": "view",
      "type": "function"
    },
    {
      "inputs": [],
      "name": "owner",
      "outputs": [
        {
          "internalType": "address",
          "name": "",
          "type": "address"
        }
      ],
      "stateMutability": "view",
      "type": "function"
    },
    {
      "inputs": [
        {
          "internalType": "address",
          "name": "_libraryAddress",
          "type": "address"
        }
      ],
      "name": "setLibraryAddress",
      "outputs": [],
      "stateMutability": "nonpayable",
      "type": "function"
    },
    {
      "inputs": [
        {
          "internalType": "address",
          "name": "_newOwner",
          "type": "address"
        }
      ],
      "name": "transferOwnership",
      "outputs": [],
      "stateMutability": "nonpayable",
      "type": "function"
    }
  ],
  "bytecode": "0x608060405234801561001057600080fd5b50604051610b47380380610b47833981810160405281019061003291906100ce565b336000806101000a81548173ffffffffffffffffffffffffffffffffffffffff021916908373ffffffffffffffffffffffffffffffffffffffff16021790555080600160006101000a81548173ffffffffffffffffffffffffffffffffffffffff021916908373ffffffffffffffffffffffffffffffffffffffff16021790555050610140565b6000815190506100c881610129565b92915050565b6000602082840312156100e057600080fd5b60006100ee848285016100b9565b91505092915050565b600061010282610109565b9050919050565b600073ffffffffffffffffffffffffffffffffffffffff82169050919050565b610132816100f7565b811461013d57600080fd5b50565b6109f88061014f6000396000f3fe608060405234801561001057600080fd5b50600436106100885760003560e01c80639c47a7b51161005b5780639c47a7b514610101578063b816f51314610131578063f2fde38b1461014f578063f3fe3bc31461016b57610088565b80634863ba171461008d578063860d248a146100a95780638da5cb5b146100c75780639610c134146100e5575b600080fd5b6100a760048036038101906100a291906107a0565b610189565b005b6100b1610294565b6040516100be91906108ca565b60405180910390f35b6100cf6102cd565b6040516100dc919061086b565b60405180910390f35b6100ff60048036038101906100fa91906107c9565b6102f1565b005b61011b600480360381019061011691906107a0565b6103c9565b60405161012891906108af565b60405180910390f35b6101396103fe565b604051610146919061086b565b60405180910390f35b610169600480360381019061016491906107a0565b610424565b005b610173610651565b60405161018091906108ca565b60405180910390f35b60008054906101000a900473ffffffffffffffffffffffffffffffffffffffff1673ffffffffffffffffffffffffffffffffffffffff163373ffffffffffffffffffffffffffffffffffffffff16146040518060400160405280600681526020017f30313830303100000000000000000000000000000000000000000000000000008152509061024f576040517f08c379a000000000000000000000000000000000000000000000000000000000815260040161024691906108ca565b60405180910390fd5b5080600160006101000a81548173ffffffffffffffffffffffffffffffffffffffff021916908373ffffffffffffffffffffffffffffffffffffffff16021790555050565b6040518060400160405280600681526020017f303138303032000000000000000000000000000000000000000000000000000081525081565b60008054906101000a900473ffffffffffffffffffffffffffffffffffffffff1681565b600061031e600160009054906101000a900473ffffffffffffffffffffffffffffffffffffffff1661068a565b90508073ffffffffffffffffffffffffffffffffffffffff1663cd6dc68784846040518363ffffffff1660e01b815260040161035b929190610886565b600060405180830381600087803b15801561037557600080fd5b505af1158015610389573d6000803e3d6000fd5b505050507f12fc3b85090507ad36d1ddba7feb3c3452d890b96339e931c47cabf089c55ad2816040516103bc919061086b565b60405180910390a1505050565b60006103f782600160009054906101000a900473ffffffffffffffffffffffffffffffffffffffff166106f4565b9050919050565b600160009054906101000a900473ffffffffffffffffffffffffffffffffffffffff1681565b60008054906101000a900473ffffffffffffffffffffffffffffffffffffffff1673ffffffffffffffffffffffffffffffffffffffff163373ffffffffffffffffffffffffffffffffffffffff16146040518060400160405280600681526020017f3031383030310000000000000000000000000000000000000000000000000000815250906104ea576040517f08c379a00000000000000000000000000000000000000000000000000000000081526004016104e191906108ca565b60405180910390fd5b50600073ffffffffffffffffffffffffffffffffffffffff168173ffffffffffffffffffffffffffffffffffffffff1614156040518060400160405280600681526020017f303138303032000000000000000000000000000000000000000000000000000081525090610593576040517f08c379a000000000000000000000000000000000000000000000000000000000815260040161058a91906108ca565b60405180910390fd5b508073ffffffffffffffffffffffffffffffffffffffff1660008054906101000a900473ffffffffffffffffffffffffffffffffffffffff1673ffffffffffffffffffffffffffffffffffffffff167f8be0079c531659141344cd1fd0a4f28419497f9722a3daafe3b4186f6b6457e060405160405180910390a3806000806101000a81548173ffffffffffffffffffffffffffffffffffffffff021916908373ffffffffffffffffffffffffffffffffffffffff16021790555050565b6040518060400160405280600681526020017f303138303031000000000000000000000000000000000000000000000000000081525081565b6000808260601b90506040517f3d602d80600a3d3981f3363d3d373d3d3d363d7300000000000000000000000081528160148201527f5af43d82803e903d91602b57fd5bf3000000000000000000000000000000000060288201526037816000f092505050919050565b6000808360601b90506040517f363d3d373d3d3d363d7300000000000000000000000000000000000000000000815281600a8201527f5af43d82803e903d91602b57fd5bf30000000000000000000000000000000000601e82015260408101602d600082873c600d810151600d83015114815183511416935050505092915050565b60008135905061078581610994565b92915050565b60008135905061079a816109ab565b92915050565b6000602082840312156107b257600080fd5b60006107c084828501610776565b91505092915050565b600080604083850312156107dc57600080fd5b60006107ea85828601610776565b92505060206107fb8582860161078b565b9150509250929050565b61080e81610908565b82525050565b61081d8161091a565b82525050565b600061082e826108ec565b61083881856108f7565b9350610848818560208601610950565b61085181610983565b840191505092915050565b61086581610946565b82525050565b60006020820190506108806000830184610805565b92915050565b600060408201905061089b6000830185610805565b6108a8602083018461085c565b9392505050565b60006020820190506108c46000830184610814565b92915050565b600060208201905081810360008301526108e48184610823565b905092915050565b600081519050919050565b600082825260208201905092915050565b600061091382610926565b9050919050565b60008115159050919050565b600073ffffffffffffffffffffffffffffffffffffffff82169050919050565b6000819050919050565b60005b8381101561096e578082015181840152602081019050610953565b8381111561097d576000848401525b50505050565b6000601f19601f8301169050919050565b61099d81610908565b81146109a857600080fd5b50565b6109b481610946565b81146109bf57600080fd5b5056fea2646970667358221220db5efb131a14e7ef196afbcc66dacad2cecd72f4975b8a5ac51bbb8e6b59b1cd64736f6c63430008000033",
  "linkReferences": {},
  "deployedLinkReferences": {}
}