{
  "_format": "hh-sol-artifact-1",
  "contractName": "MetaCoinFactory",
  "sourceName": "contracts/CloneFactory/MetaCoinFactory.sol",
  "abi": [
    {
      "inputs": [
        {
          "internalType": "address",
          "name": "_libraryAddress",
          "type": "address"
        }
      ],
      "stateMutability": "nonpayable",
      "type": "constructor"
    },
    {
      "anonymous": false,
      "inputs": [
        {
          "indexed": false,
          "internalType": "address",
          "name": "newMetaCoinAddress",
          "type": "address"
        }
      ],
      "name": "MetaCoinCreated",
      "type": "event"
    },
    {
      "anonymous": false,
      "inputs": [
        {
          "indexed": true,
          "internalType": "address",
          "name": "previousOwner",
          "type": "address"
        },
        {
          "indexed": true,
          "internalType": "address",
          "name": "newOwner",
          "type": "address"
        }
      ],
      "name": "OwnershipTransferred",
      "type": "event"
    },
    {
      "inputs": [],
      "name": "CANNOT_TRANSFER_TO_ZERO_ADDRESS",
      "outputs": [
        {
          "internalType": "string",
          "name": "",
          "type": "string"
        }
      ],
      "stateMutability": "view",
      "type": "function"
    },
    {
      "inputs": [],
      "name": "NOT_CURRENT_OWNER",
      "outputs": [
        {
          "internalType": "string",
          "name": "",
          "type": "string"
        }
      ],
      "stateMutability": "view",
      "type": "function"
    },
    {
      "inputs": [
        {
          "internalType": "address",
          "name": "_metaCoinOwner",
          "type": "address"
        },
        {
          "internalType": "uint256",
          "name": "_initialSupply",
          "type": "uint256"
        }
      ],
      "name": "createMetaCoin",
      "outputs": [],
      "stateMutability": "nonpayable",
      "type": "function"
    },
    {
      "inputs": [
        {
          "internalType": "address",
          "name": "_targetAddress",
          "type": "address"
        }
      ],
      "name": "isCloned",
      "outputs": [
        {
          "internalType": "bool",
          "name": "",
          "type": "bool"
        }
      ],
      "stateMutability": "view",
      "type": "function"
    },
    {
      "inputs": [],
      "name": "libraryAddress",
      "outputs": [
        {
          "internalType": "address",
          "name": "",
          "type": "address"
        }
      ],
      "stateMutability": "view",
      "type": "function"
    },
    {
      "inputs": [],
      "name": "owner",
      "outputs": [
        {
          "internalType": "address",
          "name": "",
          "type": "address"
        }
      ],
      "stateMutability": "view",
      "type": "function"
    },
    {
      "inputs": [
        {
          "internalType": "address",
          "name": "_libraryAddress",
          "type": "address"
        }
      ],
      "name": "setLibraryAddress",
      "outputs": [],
      "stateMutability": "nonpayable",
      "type": "function"
    },
    {
      "inputs": [
        {
          "internalType": "address",
          "name": "_newOwner",
          "type": "address"
        }
      ],
      "name": "transferOwnership",
      "outputs": [],
      "stateMutability": "nonpayable",
      "type": "function"
    }
  ],
  "bytecode": "0x608060405234801561001057600080fd5b5060405161063938038061063983398101604081905261002f91610062565b60008054336001600160a01b031991821617909155600180549091166001600160a01b0392909216919091179055610090565b600060208284031215610073578081fd5b81516001600160a01b0381168114610089578182fd5b9392505050565b61059a8061009f6000396000f3fe608060405234801561001057600080fd5b50600436106100885760003560e01c80639c47a7b51161005b5780639c47a7b5146100e8578063b816f51314610108578063f2fde38b14610110578063f3fe3bc31461012357610088565b80634863ba171461008d578063860d248a146100a25780638da5cb5b146100c05780639610c134146100d5575b600080fd5b6100a061009b36600461048f565b61012b565b005b6100aa6101a0565b6040516100b79190610511565b60405180910390f35b6100c86101c2565b6040516100b791906104d9565b6100a06100e33660046104b0565b6101d1565b6100fb6100f636600461048f565b610288565b6040516100b79190610506565b6100c86102aa565b6100a061011e36600461048f565b6102b9565b6100aa6103a3565b60005460408051808201909152600681526530313830303160d01b6020820152906001600160a01b0316331461017d5760405162461bcd60e51b81526004016101749190610511565b60405180910390fd5b50600180546001600160a01b0319166001600160a01b0392909216919091179055565b6040518060400160405280600681526020016518189c18181960d11b81525081565b6000546001600160a01b031681565b6001546000906101e9906001600160a01b03166103c5565b60405163cd6dc68760e01b81529091506001600160a01b0382169063cd6dc6879061021a90869086906004016104ed565b600060405180830381600087803b15801561023457600080fd5b505af1158015610248573d6000803e3d6000fd5b505050507f12fc3b85090507ad36d1ddba7feb3c3452d890b96339e931c47cabf089c55ad28160405161027b91906104d9565b60405180910390a1505050565b6001546000906102a29083906001600160a01b0316610417565b90505b919050565b6001546001600160a01b031681565b60005460408051808201909152600681526530313830303160d01b6020820152906001600160a01b031633146103025760405162461bcd60e51b81526004016101749190610511565b5060408051808201909152600681526518189c18181960d11b60208201526001600160a01b0382166103475760405162461bcd60e51b81526004016101749190610511565b50600080546040516001600160a01b03808516939216917f8be0079c531659141344cd1fd0a4f28419497f9722a3daafe3b4186f6b6457e091a3600080546001600160a01b0319166001600160a01b0392909216919091179055565b6040518060400160405280600681526020016530313830303160d01b81525081565b6000808260601b9050604051733d602d80600a3d3981f3363d3d373d3d3d363d7360601b81528160148201526e5af43d82803e903d91602b57fd5bf360881b60288201526037816000f0949350505050565b6000808360601b905060405169363d3d373d3d3d363d7360b01b815281600a8201526e5af43d82803e903d91602b57fd5bf360881b601e82015260408101602d600082873c600d810151600d83015114815183511416935050505092915050565b80356001600160a01b03811681146102a557600080fd5b6000602082840312156104a0578081fd5b6104a982610478565b9392505050565b600080604083850312156104c2578081fd5b6104cb83610478565b946020939093013593505050565b6001600160a01b0391909116815260200190565b6001600160a01b03929092168252602082015260400190565b901515815260200190565b6000602080835283518082850152825b8181101561053d57858101830151858201604001528201610521565b8181111561054e5783604083870101525b50601f01601f191692909201604001939250505056fea26469706673582212201377f3c90c6989677e060dfa07cbf876dc6488a1d55affe69e0ebb682ef110b364736f6c63430008000033",
  "linkReferences": {},
  "deployedLinkReferences": {}
}