{
  "_format": "hh-sol-artifact-1",
  "contractName": "PairFactory",
  "sourceName": "contracts/ProxyEIP1167/PairFactory.sol",
  "abi": [
    {
      "inputs": [
        {
          "internalType": "address",
          "name": "_master",
          "type": "address"
        }
      ],
      "stateMutability": "nonpayable",
      "type": "constructor"
    },
    {
      "anonymous": false,
      "inputs": [
        {
          "indexed": true,
          "internalType": "address",
          "name": "contractAddress",
          "type": "address"
        }
      ],
      "name": "NewPair",
      "type": "event"
    },
    {
      "anonymous": false,
      "inputs": [
        {
          "indexed": true,
          "internalType": "address",
          "name": "previousOwner",
          "type": "address"
        },
        {
          "indexed": true,
          "internalType": "address",
          "name": "newOwner",
          "type": "address"
        }
      ],
      "name": "OwnershipTransferred",
      "type": "event"
    },
    {
      "inputs": [
        {
          "internalType": "bytes32",
          "name": "salt",
          "type": "bytes32"
        }
      ],
      "name": "createPair",
      "outputs": [],
      "stateMutability": "payable",
      "type": "function"
    },
    {
      "inputs": [
        {
          "internalType": "bytes32",
          "name": "salt",
          "type": "bytes32"
        }
      ],
      "name": "getPairAddress",
      "outputs": [
        {
          "internalType": "address",
          "name": "",
          "type": "address"
        }
      ],
      "stateMutability": "view",
      "type": "function"
    },
    {
      "inputs": [],
      "name": "master",
      "outputs": [
        {
          "internalType": "address",
          "name": "",
          "type": "address"
        }
      ],
      "stateMutability": "view",
      "type": "function"
    },
    {
      "inputs": [],
      "name": "owner",
      "outputs": [
        {
          "internalType": "address",
          "name": "",
          "type": "address"
        }
      ],
      "stateMutability": "view",
      "type": "function"
    },
    {
      "inputs": [],
      "name": "renounceOwnership",
      "outputs": [],
      "stateMutability": "nonpayable",
      "type": "function"
    },
    {
      "inputs": [
        {
          "internalType": "address",
          "name": "newOwner",
          "type": "address"
        }
      ],
      "name": "transferOwnership",
      "outputs": [],
      "stateMutability": "nonpayable",
      "type": "function"
    }
  ],
  "bytecode": "0x608060405234801561001057600080fd5b5060405161060e38038061060e83398101604081905261002f916100b8565b61003f61003a610064565b610068565b600180546001600160a01b0319166001600160a01b03929092169190911790556100e6565b3390565b600080546001600160a01b038381166001600160a01b0319831681178455604051919092169283917f8be0079c531659141344cd1fd0a4f28419497f9722a3daafe3b4186f6b6457e09190a35050565b6000602082840312156100c9578081fd5b81516001600160a01b03811681146100df578182fd5b9392505050565b610519806100f56000396000f3fe6080604052600436106100555760003560e01c806338663b1f1461005a578063715018a6146100905780638da5cb5b146100a7578063ed25a5a2146100bc578063ee97f7f3146100cf578063f2fde38b146100e4575b600080fd5b34801561006657600080fd5b5061007a6100753660046103d9565b610104565b60405161008791906103f1565b60405180910390f35b34801561009c57600080fd5b506100a5610154565b005b3480156100b357600080fd5b5061007a61019f565b6100a56100ca3660046103d9565b6101ae565b3480156100db57600080fd5b5061007a6101fc565b3480156100f057600080fd5b506100a56100ff3660046103b2565b61020b565b6001546000906001600160a01b03166101385760405162461bcd60e51b815260040161012f90610482565b60405180910390fd5b60015461014e906001600160a01b03168361027c565b92915050565b61015c610290565b6001600160a01b031661016d61019f565b6001600160a01b0316146101935760405162461bcd60e51b815260040161012f906104ae565b61019d6000610294565b565b6000546001600160a01b031690565b6001546101c4906001600160a01b0316826102e4565b6001600160a01b03167ff5bdc103c3e68a20d5f97d2d46792d3fdddfa4efeb6761f8141e6a7b936ca66c60405160405180910390a250565b6001546001600160a01b031681565b610213610290565b6001600160a01b031661022461019f565b6001600160a01b03161461024a5760405162461bcd60e51b815260040161012f906104ae565b6001600160a01b0381166102705760405162461bcd60e51b815260040161012f90610405565b61027981610294565b50565b6000610289838330610354565b9392505050565b3390565b600080546001600160a01b038381166001600160a01b0319831681178455604051919092169283917f8be0079c531659141344cd1fd0a4f28419497f9722a3daafe3b4186f6b6457e09190a35050565b6000604051733d602d80600a3d3981f3363d3d373d3d3d363d7360601b81528360601b60148201526e5af43d82803e903d91602b57fd5bf360881b6028820152826037826000f59150506001600160a01b03811661014e5760405162461bcd60e51b815260040161012f9061044b565b604051733d602d80600a3d3981f3363d3d373d3d3d363d7360601b8152606093841b60148201526f5af43d82803e903d91602b57fd5bf3ff60801b6028820152921b6038830152604c8201526037808220606c830152605591012090565b6000602082840312156103c3578081fd5b81356001600160a01b0381168114610289578182fd5b6000602082840312156103ea578081fd5b5035919050565b6001600160a01b0391909116815260200190565b60208082526026908201527f4f776e61626c653a206e6577206f776e657220697320746865207a65726f206160408201526564647265737360d01b606082015260800190565b60208082526017908201527f455243313136373a2063726561746532206661696c6564000000000000000000604082015260600190565b6020808252601290820152711b585cdd195c881b5d5cdd081899481cd95d60721b604082015260600190565b6020808252818101527f4f776e61626c653a2063616c6c6572206973206e6f7420746865206f776e657260408201526060019056fea26469706673582212209f6852d7562f52363b23625b7613f1bcf8f4cc6a12b9a2052507dd69287e137564736f6c63430008000033",
  "linkReferences": {},
  "deployedLinkReferences": {}
}