{
  "_format": "hh-sol-artifact-1",
  "contractName": "PairFactory",
  "sourceName": "contracts/ProxyEIP1167/PairFactory.sol",
  "abi": [
    {
      "inputs": [
        {
          "internalType": "address",
          "name": "_master",
          "type": "address"
        }
      ],
      "stateMutability": "nonpayable",
      "type": "constructor"
    },
    {
      "anonymous": false,
      "inputs": [
        {
          "indexed": true,
          "internalType": "address",
          "name": "contractAddress",
          "type": "address"
        }
      ],
      "name": "NewPair",
      "type": "event"
    },
    {
      "anonymous": false,
      "inputs": [
        {
          "indexed": true,
          "internalType": "address",
          "name": "previousOwner",
          "type": "address"
        },
        {
          "indexed": true,
          "internalType": "address",
          "name": "newOwner",
          "type": "address"
        }
      ],
      "name": "OwnershipTransferred",
      "type": "event"
    },
    {
      "inputs": [
        {
          "internalType": "bytes32",
          "name": "salt",
          "type": "bytes32"
        }
      ],
      "name": "createPair",
      "outputs": [],
      "stateMutability": "payable",
      "type": "function"
    },
    {
      "inputs": [
        {
          "internalType": "bytes32",
          "name": "salt",
          "type": "bytes32"
        }
      ],
      "name": "getPairAddress",
      "outputs": [
        {
          "internalType": "address",
          "name": "",
          "type": "address"
        }
      ],
      "stateMutability": "view",
      "type": "function"
    },
    {
      "inputs": [],
      "name": "master",
      "outputs": [
        {
          "internalType": "address",
          "name": "",
          "type": "address"
        }
      ],
      "stateMutability": "view",
      "type": "function"
    },
    {
      "inputs": [],
      "name": "owner",
      "outputs": [
        {
          "internalType": "address",
          "name": "",
          "type": "address"
        }
      ],
      "stateMutability": "view",
      "type": "function"
    },
    {
      "inputs": [],
      "name": "renounceOwnership",
      "outputs": [],
      "stateMutability": "nonpayable",
      "type": "function"
    },
    {
      "inputs": [
        {
          "internalType": "address",
          "name": "newOwner",
          "type": "address"
        }
      ],
      "name": "transferOwnership",
      "outputs": [],
      "stateMutability": "nonpayable",
      "type": "function"
    }
  ],
  "bytecode": "0x608060405234801561001057600080fd5b50604051610be9380380610be983398181016040528101906100329190610176565b61004e61004361009560201b60201c565b61009d60201b60201c565b80600160006101000a81548173ffffffffffffffffffffffffffffffffffffffff021916908373ffffffffffffffffffffffffffffffffffffffff160217905550506101e8565b600033905090565b60008060009054906101000a900473ffffffffffffffffffffffffffffffffffffffff169050816000806101000a81548173ffffffffffffffffffffffffffffffffffffffff021916908373ffffffffffffffffffffffffffffffffffffffff1602179055508173ffffffffffffffffffffffffffffffffffffffff168173ffffffffffffffffffffffffffffffffffffffff167f8be0079c531659141344cd1fd0a4f28419497f9722a3daafe3b4186f6b6457e060405160405180910390a35050565b600081519050610170816101d1565b92915050565b60006020828403121561018857600080fd5b600061019684828501610161565b91505092915050565b60006101aa826101b1565b9050919050565b600073ffffffffffffffffffffffffffffffffffffffff82169050919050565b6101da8161019f565b81146101e557600080fd5b50565b6109f2806101f76000396000f3fe6080604052600436106100555760003560e01c806338663b1f1461005a578063715018a6146100975780638da5cb5b146100ae578063ed25a5a2146100d9578063ee97f7f3146100f5578063f2fde38b14610120575b600080fd5b34801561006657600080fd5b50610081600480360381019061007c9190610718565b610149565b60405161008e91906107dc565b60405180910390f35b3480156100a357600080fd5b506100ac61022e565b005b3480156100ba57600080fd5b506100c36102b6565b6040516100d091906107dc565b60405180910390f35b6100f360048036038101906100ee9190610718565b6102df565b005b34801561010157600080fd5b5061010a61036f565b60405161011791906107dc565b60405180910390f35b34801561012c57600080fd5b50610147600480360381019061014291906106ef565b610395565b005b60008073ffffffffffffffffffffffffffffffffffffffff16600160009054906101000a900473ffffffffffffffffffffffffffffffffffffffff1673ffffffffffffffffffffffffffffffffffffffff1614156101dc576040517f08c379a00000000000000000000000000000000000000000000000000000000081526004016101d390610837565b60405180910390fd5b61022782600160009054906101000a900473ffffffffffffffffffffffffffffffffffffffff1673ffffffffffffffffffffffffffffffffffffffff1661048d90919063ffffffff16565b9050919050565b6102366104a2565b73ffffffffffffffffffffffffffffffffffffffff166102546102b6565b73ffffffffffffffffffffffffffffffffffffffff16146102aa576040517f08c379a00000000000000000000000000000000000000000000000000000000081526004016102a190610857565b60405180910390fd5b6102b460006104aa565b565b60008060009054906101000a900473ffffffffffffffffffffffffffffffffffffffff16905090565b61032a81600160009054906101000a900473ffffffffffffffffffffffffffffffffffffffff1673ffffffffffffffffffffffffffffffffffffffff1661056e90919063ffffffff16565b73ffffffffffffffffffffffffffffffffffffffff167ff5bdc103c3e68a20d5f97d2d46792d3fdddfa4efeb6761f8141e6a7b936ca66c60405160405180910390a250565b600160009054906101000a900473ffffffffffffffffffffffffffffffffffffffff1681565b61039d6104a2565b73ffffffffffffffffffffffffffffffffffffffff166103bb6102b6565b73ffffffffffffffffffffffffffffffffffffffff1614610411576040517f08c379a000000000000000000000000000000000000000000000000000000000815260040161040890610857565b60405180910390fd5b600073ffffffffffffffffffffffffffffffffffffffff168173ffffffffffffffffffffffffffffffffffffffff161415610481576040517f08c379a0000000000000000000000000000000000000000000000000000000008152600401610478906107f7565b60405180910390fd5b61048a816104aa565b50565b600061049a838330610645565b905092915050565b600033905090565b60008060009054906101000a900473ffffffffffffffffffffffffffffffffffffffff169050816000806101000a81548173ffffffffffffffffffffffffffffffffffffffff021916908373ffffffffffffffffffffffffffffffffffffffff1602179055508173ffffffffffffffffffffffffffffffffffffffff168173ffffffffffffffffffffffffffffffffffffffff167f8be0079c531659141344cd1fd0a4f28419497f9722a3daafe3b4186f6b6457e060405160405180910390a35050565b60006040517f3d602d80600a3d3981f3363d3d373d3d3d363d7300000000000000000000000081528360601b60148201527f5af43d82803e903d91602b57fd5bf300000000000000000000000000000000006028820152826037826000f5915050600073ffffffffffffffffffffffffffffffffffffffff168173ffffffffffffffffffffffffffffffffffffffff16141561063f576040517f08c379a000000000000000000000000000000000000000000000000000000000815260040161063690610817565b60405180910390fd5b92915050565b60006040517f3d602d80600a3d3981f3363d3d373d3d3d363d7300000000000000000000000081528460601b60148201527f5af43d82803e903d91602b57fd5bf3ff0000000000000000000000000000000060288201528260601b603882015283604c82015260378120606c820152605560378201209150509392505050565b6000813590506106d48161098e565b92915050565b6000813590506106e9816109a5565b92915050565b60006020828403121561070157600080fd5b600061070f848285016106c5565b91505092915050565b60006020828403121561072a57600080fd5b6000610738848285016106da565b91505092915050565b61074a81610888565b82525050565b600061075d602683610877565b9150610768826108c4565b604082019050919050565b6000610780601783610877565b915061078b82610913565b602082019050919050565b60006107a3601283610877565b91506107ae8261093c565b602082019050919050565b60006107c6602083610877565b91506107d182610965565b602082019050919050565b60006020820190506107f16000830184610741565b92915050565b6000602082019050818103600083015261081081610750565b9050919050565b6000602082019050818103600083015261083081610773565b9050919050565b6000602082019050818103600083015261085081610796565b9050919050565b60006020820190508181036000830152610870816107b9565b9050919050565b600082825260208201905092915050565b6000610893826108a4565b9050919050565b6000819050919050565b600073ffffffffffffffffffffffffffffffffffffffff82169050919050565b7f4f776e61626c653a206e6577206f776e657220697320746865207a65726f206160008201527f6464726573730000000000000000000000000000000000000000000000000000602082015250565b7f455243313136373a2063726561746532206661696c6564000000000000000000600082015250565b7f6d6173746572206d757374206265207365740000000000000000000000000000600082015250565b7f4f776e61626c653a2063616c6c6572206973206e6f7420746865206f776e6572600082015250565b61099781610888565b81146109a257600080fd5b50565b6109ae8161089a565b81146109b957600080fd5b5056fea2646970667358221220c5c8b48e0f8917a87e1dfe240f229c27c04e61463f6e6334a3583dd2e7a83f2264736f6c63430008020033",
  "linkReferences": {},
  "deployedLinkReferences": {}
}