{
  "_format": "hh-sol-artifact-1",
  "contractName": "BitcoinNFT",
  "sourceName": "contracts/NonFungible/BitcoinNFT.sol",
  "abi": [
    {
      "inputs": [],
      "stateMutability": "nonpayable",
      "type": "constructor"
    },
    {
      "anonymous": false,
      "inputs": [
        {
          "indexed": true,
          "internalType": "address",
          "name": "_owner",
          "type": "address"
        },
        {
          "indexed": true,
          "internalType": "address",
          "name": "_approved",
          "type": "address"
        },
        {
          "indexed": true,
          "internalType": "uint256",
          "name": "_tokenId",
          "type": "uint256"
        }
      ],
      "name": "Approval",
      "type": "event"
    },
    {
      "anonymous": false,
      "inputs": [
        {
          "indexed": true,
          "internalType": "address",
          "name": "_owner",
          "type": "address"
        },
        {
          "indexed": true,
          "internalType": "address",
          "name": "_operator",
          "type": "address"
        },
        {
          "indexed": false,
          "internalType": "bool",
          "name": "_approved",
          "type": "bool"
        }
      ],
      "name": "ApprovalForAll",
      "type": "event"
    },
    {
      "anonymous": false,
      "inputs": [
        {
          "indexed": true,
          "internalType": "address",
          "name": "previousOwner",
          "type": "address"
        },
        {
          "indexed": true,
          "internalType": "address",
          "name": "newOwner",
          "type": "address"
        }
      ],
      "name": "OwnershipTransferred",
      "type": "event"
    },
    {
      "anonymous": false,
      "inputs": [
        {
          "indexed": true,
          "internalType": "address",
          "name": "_from",
          "type": "address"
        },
        {
          "indexed": true,
          "internalType": "address",
          "name": "_to",
          "type": "address"
        },
        {
          "indexed": true,
          "internalType": "uint256",
          "name": "_tokenId",
          "type": "uint256"
        }
      ],
      "name": "Transfer",
      "type": "event"
    },
    {
      "inputs": [],
      "name": "CANNOT_TRANSFER_TO_ZERO_ADDRESS",
      "outputs": [
        {
          "internalType": "string",
          "name": "",
          "type": "string"
        }
      ],
      "stateMutability": "view",
      "type": "function"
    },
    {
      "inputs": [],
      "name": "NOT_CURRENT_OWNER",
      "outputs": [
        {
          "internalType": "string",
          "name": "",
          "type": "string"
        }
      ],
      "stateMutability": "view",
      "type": "function"
    },
    {
      "inputs": [
        {
          "internalType": "address",
          "name": "_to",
          "type": "address"
        },
        {
          "internalType": "uint256",
          "name": "_tokenId",
          "type": "uint256"
        },
        {
          "internalType": "string",
          "name": "_uri",
          "type": "string"
        }
      ],
      "name": "_mint",
      "outputs": [],
      "stateMutability": "nonpayable",
      "type": "function"
    },
    {
      "inputs": [
        {
          "internalType": "address",
          "name": "_approved",
          "type": "address"
        },
        {
          "internalType": "uint256",
          "name": "_tokenId",
          "type": "uint256"
        }
      ],
      "name": "approve",
      "outputs": [],
      "stateMutability": "nonpayable",
      "type": "function"
    },
    {
      "inputs": [
        {
          "internalType": "address",
          "name": "_owner",
          "type": "address"
        }
      ],
      "name": "balanceOf",
      "outputs": [
        {
          "internalType": "uint256",
          "name": "",
          "type": "uint256"
        }
      ],
      "stateMutability": "view",
      "type": "function"
    },
    {
      "inputs": [
        {
          "internalType": "uint256",
          "name": "_tokenId",
          "type": "uint256"
        }
      ],
      "name": "getApproved",
      "outputs": [
        {
          "internalType": "address",
          "name": "",
          "type": "address"
        }
      ],
      "stateMutability": "view",
      "type": "function"
    },
    {
      "inputs": [
        {
          "internalType": "address",
          "name": "_owner",
          "type": "address"
        },
        {
          "internalType": "address",
          "name": "_operator",
          "type": "address"
        }
      ],
      "name": "isApprovedForAll",
      "outputs": [
        {
          "internalType": "bool",
          "name": "",
          "type": "bool"
        }
      ],
      "stateMutability": "view",
      "type": "function"
    },
    {
      "inputs": [],
      "name": "name",
      "outputs": [
        {
          "internalType": "string",
          "name": "_name",
          "type": "string"
        }
      ],
      "stateMutability": "view",
      "type": "function"
    },
    {
      "inputs": [],
      "name": "owner",
      "outputs": [
        {
          "internalType": "address",
          "name": "",
          "type": "address"
        }
      ],
      "stateMutability": "view",
      "type": "function"
    },
    {
      "inputs": [
        {
          "internalType": "uint256",
          "name": "_tokenId",
          "type": "uint256"
        }
      ],
      "name": "ownerOf",
      "outputs": [
        {
          "internalType": "address",
          "name": "_owner",
          "type": "address"
        }
      ],
      "stateMutability": "view",
      "type": "function"
    },
    {
      "inputs": [
        {
          "internalType": "address",
          "name": "_from",
          "type": "address"
        },
        {
          "internalType": "address",
          "name": "_to",
          "type": "address"
        },
        {
          "internalType": "uint256",
          "name": "_tokenId",
          "type": "uint256"
        }
      ],
      "name": "safeTransferFrom",
      "outputs": [],
      "stateMutability": "nonpayable",
      "type": "function"
    },
    {
      "inputs": [
        {
          "internalType": "address",
          "name": "_from",
          "type": "address"
        },
        {
          "internalType": "address",
          "name": "_to",
          "type": "address"
        },
        {
          "internalType": "uint256",
          "name": "_tokenId",
          "type": "uint256"
        },
        {
          "internalType": "bytes",
          "name": "_data",
          "type": "bytes"
        }
      ],
      "name": "safeTransferFrom",
      "outputs": [],
      "stateMutability": "nonpayable",
      "type": "function"
    },
    {
      "inputs": [
        {
          "internalType": "address",
          "name": "_operator",
          "type": "address"
        },
        {
          "internalType": "bool",
          "name": "_approved",
          "type": "bool"
        }
      ],
      "name": "setApprovalForAll",
      "outputs": [],
      "stateMutability": "nonpayable",
      "type": "function"
    },
    {
      "inputs": [
        {
          "internalType": "bytes4",
          "name": "_interfaceID",
          "type": "bytes4"
        }
      ],
      "name": "supportsInterface",
      "outputs": [
        {
          "internalType": "bool",
          "name": "",
          "type": "bool"
        }
      ],
      "stateMutability": "view",
      "type": "function"
    },
    {
      "inputs": [],
      "name": "symbol",
      "outputs": [
        {
          "internalType": "string",
          "name": "_symbol",
          "type": "string"
        }
      ],
      "stateMutability": "view",
      "type": "function"
    },
    {
      "inputs": [
        {
          "internalType": "uint256",
          "name": "_tokenId",
          "type": "uint256"
        }
      ],
      "name": "tokenURI",
      "outputs": [
        {
          "internalType": "string",
          "name": "",
          "type": "string"
        }
      ],
      "stateMutability": "view",
      "type": "function"
    },
    {
      "inputs": [
        {
          "internalType": "address",
          "name": "_from",
          "type": "address"
        },
        {
          "internalType": "address",
          "name": "_to",
          "type": "address"
        },
        {
          "internalType": "uint256",
          "name": "_tokenId",
          "type": "uint256"
        }
      ],
      "name": "transferFrom",
      "outputs": [],
      "stateMutability": "nonpayable",
      "type": "function"
    },
    {
      "inputs": [
        {
          "internalType": "address",
          "name": "_newOwner",
          "type": "address"
        }
      ],
      "name": "transferOwnership",
      "outputs": [],
      "stateMutability": "nonpayable",
      "type": "function"
    }
  ],
  "bytecode": "0x60806040523480156200001157600080fd5b50600060208181527f67be87c3ff9960ca1e9cfac5cab2ff4747269cf9ed20c9b7306235ac35a491c5805460ff1990811660019081179092557ff7815fccbf112960a73756e185887fedcb9fc64ca0a16cc5923b7960ed7808008054821683179055635b5e139f60e01b9093527f9562381dfbc2d8b8b66e765249f330164b73e329e5f01670660643571d1974df805490931617909155600880546001600160a01b0319163317905560408051808201909152600a80825269212a21902427a22622a960b11b91909201908152620000ed916005919062000122565b5060408051808201909152600480825263084a886960e31b60209092019182526200011b9160069162000122565b5062000205565b8280546200013090620001c8565b90600052602060002090601f0160209004810192826200015457600085556200019f565b82601f106200016f57805160ff19168380011785556200019f565b828001600101855582156200019f579182015b828111156200019f57825182559160200191906001019062000182565b50620001ad929150620001b1565b5090565b5b80821115620001ad5760008155600101620001b2565b600281046001821680620001dd57607f821691505b60208210811415620001ff57634e487b7160e01b600052602260045260246000fd5b50919050565b6116b680620002156000396000f3fe608060405234801561001057600080fd5b50600436106101165760003560e01c80638da5cb5b116100a2578063b88d4fde11610071578063b88d4fde14610225578063c87b56dd14610238578063e985e9c51461024b578063f2fde38b1461025e578063f3fe3bc31461027157610116565b80638da5cb5b146101ef57806395d89b41146101f7578063a22cb465146101ff578063a987d4c61461021257610116565b806323b872dd116100e957806323b872dd1461018e57806342842e0e146101a15780636352211e146101b457806370a08231146101c7578063860d248a146101e757610116565b806301ffc9a71461011b57806306fdde0314610144578063081812fc14610159578063095ea7b314610179575b600080fd5b61012e6101293660046114dd565b610279565b60405161013b91906115c9565b60405180910390f35b61014c61029c565b60405161013b91906115d4565b61016c610167366004611515565b61032e565b60405161013b9190611578565b61018c61018736600461145c565b6103b0565b005b61018c61019c36600461137a565b610552565b61018c6101af36600461137a565b61070d565b61016c6101c2366004611515565b61072d565b6101da6101d5366004611327565b610785565b60405161013b91906115e7565b61014c6107dc565b61016c6107fe565b61014c61080d565b61018c61020d366004611422565b61081c565b61018c610220366004611485565b61088b565b61018c6102333660046113b5565b610925565b61014c610246366004611515565b61096e565b61012e610259366004611348565b610a69565b61018c61026c366004611327565b610a97565b61014c610b82565b6001600160e01b0319811660009081526020819052604090205460ff165b919050565b6060600580546102ab9061161f565b80601f01602080910402602001604051908101604052809291908181526020018280546102d79061161f565b80156103245780601f106102f957610100808354040283529160200191610324565b820191906000526020600020905b81548152906001019060200180831161030757829003601f168201915b5050505050905090565b6000818152600160209081526040808320548151808301909252600682526518181998181960d11b9282019290925283916001600160a01b031661038e5760405162461bcd60e51b815260040161038591906115d4565b60405180910390fd5b506000838152600260205260409020546001600160a01b031691505b50919050565b60008181526001602052604090205481906001600160a01b0316338114806103fb57506001600160a01b038116600090815260046020908152604080832033845290915290205460ff165b6040518060400160405280600681526020016530303330303360d01b815250906104385760405162461bcd60e51b815260040161038591906115d4565b50600083815260016020908152604091829020548251808401909352600683526518181998181960d11b918301919091528491906001600160a01b03166104925760405162461bcd60e51b815260040161038591906115d4565b50600084815260016020908152604091829020548251808401909352600683526506060666060760d31b918301919091526001600160a01b03908116919087168214156104f25760405162461bcd60e51b815260040161038591906115d4565b5060008581526002602052604080822080546001600160a01b0319166001600160a01b038a811691821790925591518893918516917f8c5be1e5ebec7d5bd14f71427d1e84f3dd0314c0f7b2291e5b200ac8c7c3b92591a4505050505050565b60008181526001602052604090205481906001600160a01b03163381148061059057506000828152600260205260409020546001600160a01b031633145b806105be57506001600160a01b038116600090815260046020908152604080832033845290915290205460ff165b604051806040016040528060068152602001650c0c0ccc0c0d60d21b815250906105fb5760405162461bcd60e51b815260040161038591906115d4565b50600083815260016020908152604091829020548251808401909352600683526518181998181960d11b918301919091528491906001600160a01b03166106555760405162461bcd60e51b815260040161038591906115d4565b50600084815260016020908152604091829020548251808401909352600683526530303330303760d01b918301919091526001600160a01b039081169190881682146106b45760405162461bcd60e51b815260040161038591906115d4565b5060408051808201909152600681526530303330303160d01b60208201526001600160a01b0387166106f95760405162461bcd60e51b815260040161038591906115d4565b506107048686610ba4565b50505050505050565b61072883838360405180602001604052806000815250610c1f565b505050565b600081815260016020908152604091829020548251808401909352600683526518181998181960d11b918301919091526001600160a01b031690816103aa5760405162461bcd60e51b815260040161038591906115d4565b60408051808201909152600681526530303330303160d01b60208201526000906001600160a01b0383166107cc5760405162461bcd60e51b815260040161038591906115d4565b506107d682610ecd565b92915050565b6040518060400160405280600681526020016518189c18181960d11b81525081565b6008546001600160a01b031681565b6060600680546102ab9061161f565b3360008181526004602090815260408083206001600160a01b038716808552925291829020805460ff191685151517905590519091907f17307eab39ab6107e8899845ad3d59bd9653f200f220920489ca2b5937696c319061087f9085906115c9565b60405180910390a35050565b60085460408051808201909152600681526530313830303160d01b6020820152906001600160a01b031633146108d45760405162461bcd60e51b815260040161038591906115d4565b506108df8484610ee8565b61091f8383838080601f016020809104026020016040519081016040528093929190818152602001838380828437600092019190915250610fcb92505050565b50505050565b61096785858585858080601f016020809104026020016040519081016040528093929190818152602001838380828437600092019190915250610c1f92505050565b5050505050565b600081815260016020908152604091829020548251808401909352600683526518181998181960d11b9183019190915260609183916001600160a01b03166109c95760405162461bcd60e51b815260040161038591906115d4565b50600083815260076020526040902080546109e39061161f565b80601f0160208091040260200160405190810160405280929190818152602001828054610a0f9061161f565b8015610a5c5780601f10610a3157610100808354040283529160200191610a5c565b820191906000526020600020905b815481529060010190602001808311610a3f57829003601f168201915b5050505050915050919050565b6001600160a01b03918216600090815260046020908152604080832093909416825291909152205460ff1690565b60085460408051808201909152600681526530313830303160d01b6020820152906001600160a01b03163314610ae05760405162461bcd60e51b815260040161038591906115d4565b5060408051808201909152600681526518189c18181960d11b60208201526001600160a01b038216610b255760405162461bcd60e51b815260040161038591906115d4565b506008546040516001600160a01b038084169216907f8be0079c531659141344cd1fd0a4f28419497f9722a3daafe3b4186f6b6457e090600090a3600880546001600160a01b0319166001600160a01b0392909216919091179055565b6040518060400160405280600681526020016530313830303160d01b81525081565b6000818152600160205260409020546001600160a01b0316610bc582611044565b610bcf8183611081565b610bd9838361113b565b81836001600160a01b0316826001600160a01b03167fddf252ad1be2c89b69c2b068fc378daa952ba7f163c4a11628f55a4df523b3ef60405160405180910390a4505050565b60008281526001602052604090205482906001600160a01b031633811480610c5d57506000828152600260205260409020546001600160a01b031633145b80610c8b57506001600160a01b038116600090815260046020908152604080832033845290915290205460ff165b604051806040016040528060068152602001650c0c0ccc0c0d60d21b81525090610cc85760405162461bcd60e51b815260040161038591906115d4565b50600084815260016020908152604091829020548251808401909352600683526518181998181960d11b918301919091528591906001600160a01b0316610d225760405162461bcd60e51b815260040161038591906115d4565b50600085815260016020908152604091829020548251808401909352600683526530303330303760d01b918301919091526001600160a01b03908116919089168214610d815760405162461bcd60e51b815260040161038591906115d4565b5060408051808201909152600681526530303330303160d01b60208201526001600160a01b038816610dc65760405162461bcd60e51b815260040161038591906115d4565b50610dd18787610ba4565b610de3876001600160a01b03166111f4565b15610ec357604051630a85bd0160e11b81526000906001600160a01b0389169063150b7a0290610e1d9033908d908c908c9060040161158c565b602060405180830381600087803b158015610e3757600080fd5b505af1158015610e4b573d6000803e3d6000fd5b505050506040513d601f19601f82011682018060405250810190610e6f91906114f9565b60408051808201909152600681526530303330303560d01b60208201529091506001600160e01b03198216630a85bd0160e11b14610ec05760405162461bcd60e51b815260040161038591906115d4565b50505b5050505050505050565b6001600160a01b031660009081526003602052604090205490565b60408051808201909152600681526530303330303160d01b60208201526001600160a01b038316610f2c5760405162461bcd60e51b815260040161038591906115d4565b50600081815260016020908152604091829020548251808401909352600683526518181998181b60d11b918301919091526001600160a01b031615610f845760405162461bcd60e51b815260040161038591906115d4565b50610f8f828261113b565b60405181906001600160a01b038416906000907fddf252ad1be2c89b69c2b068fc378daa952ba7f163c4a11628f55a4df523b3ef908290a45050565b600082815260016020908152604091829020548251808401909352600683526518181998181960d11b918301919091528391906001600160a01b03166110245760405162461bcd60e51b815260040161038591906115d4565b506000838152600760209081526040909120835161091f92850190611230565b6000818152600260205260409020546001600160a01b03161561107e57600081815260026020526040902080546001600160a01b03191690555b50565b600081815260016020908152604091829020548251808401909352600683526530303330303760d01b918301919091526001600160a01b038481169116146110dc5760405162461bcd60e51b815260040161038591906115d4565b506001600160a01b03821660009081526003602052604090205461110290600190611608565b6001600160a01b0390921660009081526003602090815260408083209490945591815260019091522080546001600160a01b0319169055565b600081815260016020908152604091829020548251808401909352600683526518181998181b60d11b918301919091526001600160a01b0316156111925760405162461bcd60e51b815260040161038591906115d4565b50600081815260016020818152604080842080546001600160a01b0319166001600160a01b03881690811790915584526003909152909120546111d4916115f0565b6001600160a01b0390921660009081526003602052604090209190915550565b6000813f7fc5d2460186f7233c927e7db2dcc703c0e500b653ca82273b7bfad8045d85a47081158015906112285750808214155b949350505050565b82805461123c9061161f565b90600052602060002090601f01602090048101928261125e57600085556112a4565b82601f1061127757805160ff19168380011785556112a4565b828001600101855582156112a4579182015b828111156112a4578251825591602001919060010190611289565b506112b09291506112b4565b5090565b5b808211156112b057600081556001016112b5565b80356001600160a01b038116811461029757600080fd5b60008083601f8401126112f1578182fd5b50813567ffffffffffffffff811115611308578182fd5b60208301915083602082850101111561132057600080fd5b9250929050565b600060208284031215611338578081fd5b611341826112c9565b9392505050565b6000806040838503121561135a578081fd5b611363836112c9565b9150611371602084016112c9565b90509250929050565b60008060006060848603121561138e578081fd5b611397846112c9565b92506113a5602085016112c9565b9150604084013590509250925092565b6000806000806000608086880312156113cc578081fd5b6113d5866112c9565b94506113e3602087016112c9565b935060408601359250606086013567ffffffffffffffff811115611405578182fd5b611411888289016112e0565b969995985093965092949392505050565b60008060408385031215611434578182fd5b61143d836112c9565b915060208301358015158114611451578182fd5b809150509250929050565b6000806040838503121561146e578182fd5b611477836112c9565b946020939093013593505050565b6000806000806060858703121561149a578384fd5b6114a3856112c9565b935060208501359250604085013567ffffffffffffffff8111156114c5578283fd5b6114d1878288016112e0565b95989497509550505050565b6000602082840312156114ee578081fd5b81356113418161166a565b60006020828403121561150a578081fd5b81516113418161166a565b600060208284031215611526578081fd5b5035919050565b60008151808452815b8181101561155257602081850181015186830182015201611536565b818111156115635782602083870101525b50601f01601f19169290920160200192915050565b6001600160a01b0391909116815260200190565b6001600160a01b03858116825284166020820152604081018390526080606082018190526000906115bf9083018461152d565b9695505050505050565b901515815260200190565b600060208252611341602083018461152d565b90815260200190565b6000821982111561160357611603611654565b500190565b60008282101561161a5761161a611654565b500390565b60028104600182168061163357607f821691505b602082108114156103aa57634e487b7160e01b600052602260045260246000fd5b634e487b7160e01b600052601160045260246000fd5b6001600160e01b03198116811461107e57600080fdfea2646970667358221220129f55a39437d6188e9cf768e5e6954a8859c1dfa87eadefe0f1cd49a815751f64736f6c63430008000033",
  "linkReferences": {},
  "deployedLinkReferences": {}
}