{
  "_format": "hh-sol-artifact-1",
  "contractName": "ParamsV2",
  "sourceName": "contracts/UpgradeProxy/ParamsV2.sol",
  "abi": [
    {
      "anonymous": false,
      "inputs": [
        {
          "indexed": true,
          "internalType": "bytes32",
          "name": "_key",
          "type": "bytes32"
        },
        {
          "indexed": false,
          "internalType": "uint256",
          "name": "_value",
          "type": "uint256"
        }
      ],
      "name": "Uint256Param",
      "type": "event"
    },
    {
      "inputs": [
        {
          "internalType": "bytes32",
          "name": "_key",
          "type": "bytes32"
        }
      ],
      "name": "GetUint256Param",
      "outputs": [
        {
          "internalType": "uint256",
          "name": "",
          "type": "uint256"
        }
      ],
      "stateMutability": "view",
      "type": "function"
    },
    {
      "inputs": [
        {
          "internalType": "bytes32",
          "name": "_key",
          "type": "bytes32"
        },
        {
          "internalType": "uint256",
          "name": "_value",
          "type": "uint256"
        }
      ],
      "name": "SetUint256Param",
      "outputs": [],
      "stateMutability": "nonpayable",
      "type": "function"
    },
    {
      "inputs": [
        {
          "internalType": "bytes32",
          "name": "_key",
          "type": "bytes32"
        }
      ],
      "name": "increment",
      "outputs": [
        {
          "internalType": "uint256",
          "name": "",
          "type": "uint256"
        }
      ],
      "stateMutability": "view",
      "type": "function"
    }
  ],
  "bytecode": "0x608060405234801561001057600080fd5b5061030f806100206000396000f3fe608060405234801561001057600080fd5b50600436106100415760003560e01c806340c443b314610046578063a14f648714610076578063f52cfd91146100a6575b600080fd5b610060600480360381019061005b9190610183565b6100c2565b60405161006d91906101f7565b60405180910390f35b610090600480360381019061008b9190610183565b6100ea565b60405161009d91906101f7565b60405180910390f35b6100c060048036038101906100bb91906101ac565b610106565b005b60006001600080848152602001908152602001600020546100e39190610212565b9050919050565b6000806000838152602001908152602001600020549050919050565b8060008084815260200190815260200160002081905550817f62314cc3ba42409ac285cab48a24d8c748df65c24f073ff86d8c6f3d7dc63e738260405161014d91906101f7565b60405180910390a25050565b600081359050610168816102ab565b92915050565b60008135905061017d816102c2565b92915050565b60006020828403121561019557600080fd5b60006101a384828501610159565b91505092915050565b600080604083850312156101bf57600080fd5b60006101cd85828601610159565b92505060206101de8582860161016e565b9150509250929050565b6101f181610272565b82525050565b600060208201905061020c60008301846101e8565b92915050565b600061021d82610272565b915061022883610272565b9250827fffffffffffffffffffffffffffffffffffffffffffffffffffffffffffffffff0382111561025d5761025c61027c565b5b828201905092915050565b6000819050919050565b6000819050919050565b7f4e487b7100000000000000000000000000000000000000000000000000000000600052601160045260246000fd5b6102b481610268565b81146102bf57600080fd5b50565b6102cb81610272565b81146102d657600080fd5b5056fea26469706673582212204779e5d07211c3b3a28221f30c423fcba75378a60c014741eee539779eab0dfb64736f6c63430008020033",
  "linkReferences": {},
  "deployedLinkReferences": {}
}