{
  "_format": "hh-sol-artifact-1",
  "contractName": "Pair",
  "sourceName": "contracts/ProxyEIP1167/Pair.sol",
  "abi": [
    {
      "inputs": [],
      "stateMutability": "nonpayable",
      "type": "constructor"
    },
    {
      "anonymous": false,
      "inputs": [
        {
          "indexed": true,
          "internalType": "address",
          "name": "previousOwner",
          "type": "address"
        },
        {
          "indexed": true,
          "internalType": "address",
          "name": "newOwner",
          "type": "address"
        }
      ],
      "name": "OwnershipTransferred",
      "type": "event"
    },
    {
      "inputs": [],
      "name": "getPair",
      "outputs": [
        {
          "internalType": "address[]",
          "name": "",
          "type": "address[]"
        }
      ],
      "stateMutability": "view",
      "type": "function"
    },
    {
      "inputs": [
        {
          "internalType": "address",
          "name": "_tokenA",
          "type": "address"
        },
        {
          "internalType": "address",
          "name": "_tokenB",
          "type": "address"
        }
      ],
      "name": "initialize",
      "outputs": [],
      "stateMutability": "nonpayable",
      "type": "function"
    },
    {
      "inputs": [],
      "name": "owner",
      "outputs": [
        {
          "internalType": "address",
          "name": "",
          "type": "address"
        }
      ],
      "stateMutability": "view",
      "type": "function"
    },
    {
      "inputs": [],
      "name": "renounceOwnership",
      "outputs": [],
      "stateMutability": "nonpayable",
      "type": "function"
    },
    {
      "inputs": [
        {
          "internalType": "address",
          "name": "newOwner",
          "type": "address"
        }
      ],
      "name": "transferOwnership",
      "outputs": [],
      "stateMutability": "nonpayable",
      "type": "function"
    }
  ],
  "bytecode": "0x608060405234801561001057600080fd5b5061002161001c610038565b61003c565b600180546001600160a01b0319163317905561008c565b3390565b600080546001600160a01b038381166001600160a01b0319831681178455604051919092169283917f8be0079c531659141344cd1fd0a4f28419497f9722a3daafe3b4186f6b6457e09190a35050565b6105b38061009b6000396000f3fe608060405234801561001057600080fd5b50600436106100575760003560e01c8063485cc9551461005c578063715018a6146100715780638da5cb5b14610079578063c1f1b1b514610097578063f2fde38b146100ac575b600080fd5b61006f61006a3660046103f6565b6100bf565b005b61006f6101be565b610081610209565b60405161008e9190610428565b60405180910390f35b61009f610218565b60405161008e919061043c565b61006f6100ba3660046103d5565b61027a565b600054600160a81b900460ff16806100e15750600054600160a01b900460ff16155b6101065760405162461bcd60e51b81526004016100fd906104cf565b60405180910390fd5b600054600160a81b900460ff1615801561013d576000805460ff60a01b1960ff60a81b19909116600160a81b1716600160a01b1790555b6001600160a01b0383161580159061015d57506001600160a01b03821615155b6101795760405162461bcd60e51b81526004016100fd90610552565b604080518082019091526001600160a01b038085168252831660208201526101a4906002908161033f565b5080156101b9576000805460ff60a81b191690555b505050565b6101c66102eb565b6001600160a01b03166101d7610209565b6001600160a01b0316146101fd5760405162461bcd60e51b81526004016100fd9061051d565b61020760006102ef565b565b6000546001600160a01b031690565b6060600280548060200260200160405190810160405280929190818152602001828054801561027057602002820191906000526020600020905b81546001600160a01b03168152600190910190602001808311610252575b5050505050905090565b6102826102eb565b6001600160a01b0316610293610209565b6001600160a01b0316146102b95760405162461bcd60e51b81526004016100fd9061051d565b6001600160a01b0381166102df5760405162461bcd60e51b81526004016100fd90610489565b6102e8816102ef565b50565b3390565b600080546001600160a01b038381166001600160a01b0319831681178455604051919092169283917f8be0079c531659141344cd1fd0a4f28419497f9722a3daafe3b4186f6b6457e09190a35050565b828054828255906000526020600020908101928215610394579160200282015b8281111561039457825182546001600160a01b0319166001600160a01b0390911617825560209092019160019091019061035f565b506103a09291506103a4565b5090565b5b808211156103a057600081556001016103a5565b80356001600160a01b03811681146103d057600080fd5b919050565b6000602082840312156103e6578081fd5b6103ef826103b9565b9392505050565b60008060408385031215610408578081fd5b610411836103b9565b915061041f602084016103b9565b90509250929050565b6001600160a01b0391909116815260200190565b6020808252825182820181905260009190848201906040850190845b8181101561047d5783516001600160a01b031683529284019291840191600101610458565b50909695505050505050565b60208082526026908201527f4f776e61626c653a206e6577206f776e657220697320746865207a65726f206160408201526564647265737360d01b606082015260800190565b6020808252602e908201527f496e697469616c697a61626c653a20636f6e747261637420697320616c72656160408201526d191e481a5b9a5d1a585b1a5e995960921b606082015260800190565b6020808252818101527f4f776e61626c653a2063616c6c6572206973206e6f7420746865206f776e6572604082015260600190565b602080825260119082015270151bdad95b881b5d5cdd081899481cd95d607a1b60408201526060019056fea264697066735822122030203336d62e4ebb2e7c305dbb8cd6a416460a12285ec11fa05b73f26e8af41d64736f6c63430008000033",
  "linkReferences": {},
  "deployedLinkReferences": {}
}