{
  "_format": "hh-sol-artifact-1",
  "contractName": "Pair",
  "sourceName": "contracts/ProxyEIP1167/Pair.sol",
  "abi": [
    {
      "inputs": [],
      "stateMutability": "nonpayable",
      "type": "constructor"
    },
    {
      "anonymous": false,
      "inputs": [
        {
          "indexed": true,
          "internalType": "address",
          "name": "previousOwner",
          "type": "address"
        },
        {
          "indexed": true,
          "internalType": "address",
          "name": "newOwner",
          "type": "address"
        }
      ],
      "name": "OwnershipTransferred",
      "type": "event"
    },
    {
      "inputs": [],
      "name": "getPair",
      "outputs": [
        {
          "internalType": "address[]",
          "name": "",
          "type": "address[]"
        }
      ],
      "stateMutability": "view",
      "type": "function"
    },
    {
      "inputs": [
        {
          "internalType": "address",
          "name": "_tokenA",
          "type": "address"
        },
        {
          "internalType": "address",
          "name": "_tokenB",
          "type": "address"
        }
      ],
      "name": "initialize",
      "outputs": [],
      "stateMutability": "nonpayable",
      "type": "function"
    },
    {
      "inputs": [],
      "name": "owner",
      "outputs": [
        {
          "internalType": "address",
          "name": "",
          "type": "address"
        }
      ],
      "stateMutability": "view",
      "type": "function"
    },
    {
      "inputs": [],
      "name": "renounceOwnership",
      "outputs": [],
      "stateMutability": "nonpayable",
      "type": "function"
    },
    {
      "inputs": [
        {
          "internalType": "address",
          "name": "newOwner",
          "type": "address"
        }
      ],
      "name": "transferOwnership",
      "outputs": [],
      "stateMutability": "nonpayable",
      "type": "function"
    }
  ],
  "bytecode": "0x608060405234801561001057600080fd5b5061002d61002261007360201b60201c565b61007b60201b60201c565b33600160006101000a81548173ffffffffffffffffffffffffffffffffffffffff021916908373ffffffffffffffffffffffffffffffffffffffff16021790555061013f565b600033905090565b60008060009054906101000a900473ffffffffffffffffffffffffffffffffffffffff169050816000806101000a81548173ffffffffffffffffffffffffffffffffffffffff021916908373ffffffffffffffffffffffffffffffffffffffff1602179055508173ffffffffffffffffffffffffffffffffffffffff168173ffffffffffffffffffffffffffffffffffffffff167f8be0079c531659141344cd1fd0a4f28419497f9722a3daafe3b4186f6b6457e060405160405180910390a35050565b610a998061014e6000396000f3fe608060405234801561001057600080fd5b50600436106100575760003560e01c8063485cc9551461005c578063715018a6146100785780638da5cb5b14610082578063c1f1b1b5146100a0578063f2fde38b146100be575b600080fd5b610076600480360381019061007191906106c7565b6100da565b005b6100806102df565b005b61008a610367565b6040516100979190610823565b60405180910390f35b6100a8610390565b6040516100b5919061083e565b60405180910390f35b6100d860048036038101906100d3919061069e565b61041e565b005b600060159054906101000a900460ff16806101025750600060149054906101000a900460ff16155b610141576040517f08c379a000000000000000000000000000000000000000000000000000000000815260040161013890610880565b60405180910390fd5b60008060159054906101000a900460ff161590508015610192576001600060156101000a81548160ff0219169083151502179055506001600060146101000a81548160ff0219169083151502179055505b600073ffffffffffffffffffffffffffffffffffffffff168373ffffffffffffffffffffffffffffffffffffffff16141580156101fc5750600073ffffffffffffffffffffffffffffffffffffffff168273ffffffffffffffffffffffffffffffffffffffff1614155b61023b576040517f08c379a0000000000000000000000000000000000000000000000000000000008152600401610232906108c0565b60405180910390fd5b60405180604001604052808473ffffffffffffffffffffffffffffffffffffffff1673ffffffffffffffffffffffffffffffffffffffff1681526020018373ffffffffffffffffffffffffffffffffffffffff1673ffffffffffffffffffffffffffffffffffffffff1681525060029060026102b89291906105e2565b5080156102da5760008060156101000a81548160ff0219169083151502179055505b505050565b6102e7610516565b73ffffffffffffffffffffffffffffffffffffffff16610305610367565b73ffffffffffffffffffffffffffffffffffffffff161461035b576040517f08c379a0000000000000000000000000000000000000000000000000000000008152600401610352906108a0565b60405180910390fd5b610365600061051e565b565b60008060009054906101000a900473ffffffffffffffffffffffffffffffffffffffff16905090565b6060600280548060200260200160405190810160405280929190818152602001828054801561041457602002820191906000526020600020905b8160009054906101000a900473ffffffffffffffffffffffffffffffffffffffff1673ffffffffffffffffffffffffffffffffffffffff16815260200190600101908083116103ca575b5050505050905090565b610426610516565b73ffffffffffffffffffffffffffffffffffffffff16610444610367565b73ffffffffffffffffffffffffffffffffffffffff161461049a576040517f08c379a0000000000000000000000000000000000000000000000000000000008152600401610491906108a0565b60405180910390fd5b600073ffffffffffffffffffffffffffffffffffffffff168173ffffffffffffffffffffffffffffffffffffffff16141561050a576040517f08c379a000000000000000000000000000000000000000000000000000000000815260040161050190610860565b60405180910390fd5b6105138161051e565b50565b600033905090565b60008060009054906101000a900473ffffffffffffffffffffffffffffffffffffffff169050816000806101000a81548173ffffffffffffffffffffffffffffffffffffffff021916908373ffffffffffffffffffffffffffffffffffffffff1602179055508173ffffffffffffffffffffffffffffffffffffffff168173ffffffffffffffffffffffffffffffffffffffff167f8be0079c531659141344cd1fd0a4f28419497f9722a3daafe3b4186f6b6457e060405160405180910390a35050565b82805482825590600052602060002090810192821561065b579160200282015b8281111561065a5782518260006101000a81548173ffffffffffffffffffffffffffffffffffffffff021916908373ffffffffffffffffffffffffffffffffffffffff16021790555091602001919060010190610602565b5b509050610668919061066c565b5090565b5b8082111561068557600081600090555060010161066d565b5090565b60008135905061069881610a4c565b92915050565b6000602082840312156106b057600080fd5b60006106be84828501610689565b91505092915050565b600080604083850312156106da57600080fd5b60006106e885828601610689565b92505060206106f985828601610689565b9150509250929050565b600061070f838361071b565b60208301905092915050565b6107248161092a565b82525050565b6107338161092a565b82525050565b6000610744826108f0565b61074e8185610908565b9350610759836108e0565b8060005b8381101561078a5781516107718882610703565b975061077c836108fb565b92505060018101905061075d565b5085935050505092915050565b60006107a4602683610919565b91506107af8261095c565b604082019050919050565b60006107c7602e83610919565b91506107d2826109ab565b604082019050919050565b60006107ea602083610919565b91506107f5826109fa565b602082019050919050565b600061080d601183610919565b915061081882610a23565b602082019050919050565b6000602082019050610838600083018461072a565b92915050565b600060208201905081810360008301526108588184610739565b905092915050565b6000602082019050818103600083015261087981610797565b9050919050565b60006020820190508181036000830152610899816107ba565b9050919050565b600060208201905081810360008301526108b9816107dd565b9050919050565b600060208201905081810360008301526108d981610800565b9050919050565b6000819050602082019050919050565b600081519050919050565b6000602082019050919050565b600082825260208201905092915050565b600082825260208201905092915050565b60006109358261093c565b9050919050565b600073ffffffffffffffffffffffffffffffffffffffff82169050919050565b7f4f776e61626c653a206e6577206f776e657220697320746865207a65726f206160008201527f6464726573730000000000000000000000000000000000000000000000000000602082015250565b7f496e697469616c697a61626c653a20636f6e747261637420697320616c72656160008201527f647920696e697469616c697a6564000000000000000000000000000000000000602082015250565b7f4f776e61626c653a2063616c6c6572206973206e6f7420746865206f776e6572600082015250565b7f546f6b656e206d75737420626520736574000000000000000000000000000000600082015250565b610a558161092a565b8114610a6057600080fd5b5056fea2646970667358221220a94d980f6f616ac4cd070ca14d8cfec7fc97016add3f509719f20bf401105d6564736f6c63430008020033",
  "linkReferences": {},
  "deployedLinkReferences": {}
}